:020000040800F2
:1000000020070020890100081B1800082912000899
:10001000191800088F020008731E00080000000075
:100020000000000000000000000000009F1C00080D
:1000300091020008000000001D180008A51C00081F
:10004000A3010008A3010008A3010008A301000800
:10005000A3010008A3010008A30100089B020008F7
:10006000A3010008A3010008A3010008A3010008E0
:10007000A3010008A3010008A3010008A3010008D0
:10008000A3010008A3010008A3010008A3010008C0
:10009000A3010008A3010008A3010008A3010008B0
:1000A000A3010008A3010008A3010008A3010008A0
:1000B000A3010008A3010008A3010008A301000890
:1000C000A3010008A3010008A3010008A301000880
:1000D000A3010008A3010008A3010008A301000870
:1000E00093020008A3010008A301000800F002F831
:1000F00000F03AF80AA090E8000C82448344AAF188
:100100000107DA4501D100F02FF8AFF2090EBAE885
:100110000F0013F0010F18BFFB1A43F0010318473B
:10012000B4240000D4240000103A24BF78C878C159
:10013000FAD8520724BF30C830C144BF04680C60ED
:10014000704700000023002400250026103A28BF35
:1001500078C1FBD8520728BF30C148BF0B60704739
:100160001FB51FBD10B510BD00F058F81146FFF7C0
:10017000F7FF01F08FFE00F076F803B4FFF7F2FF0F
:1001800003BC00F07DF8000009488047094800479B
:10019000FEE7FEE7FEE7FEE7FEE7FEE7FEE7FEE737
:1001A000FEE7FEE704480549054A064B7047000094
:1001B000F91C0008ED0000082001002020070020A5
:1001C00020030020200300204FF0000200B513465A
:1001D00094469646203922BFA0E80C50A0E80C5067
:1001E000B1F12001BFF4F7AF090728BFA0E80C5018
:1001F00048BF0CC05DF804EB890028BF40F8042B11
:1002000008BF704748BF20F8022B11F0804F18BF7D
:1002100000F8012B7047704770477047754600F033
:100220002BF8AE4605006946534620F00700854688
:1002300018B020B5FFF7B6FFBDE820404FF000062C
:100240004FF000074FF000084FF0000B21F00701BE
:10025000AC46ACE8C009ACE8C009ACE8C009ACE801
:10026000C0098D46704710B50446AFF300802046A4
:10027000BDE81040FFF781BF00487047C000002074
:1002800001491820ABBEFEE7260002007047FEE7DA
:1002900070474FF4004000F031B8022000F02EB853
:1002A00072B6FEE770B5044600F02EF90546601CF4
:1002B00002D004480078044400F026F9401BA04214
:1002C000FAD370BD1400002010B5022807D0B0F595
:1002D000004F0CD1BDE81040054801F0E4BB0122FD
:1002E0005103044800F00BF903490120087010BDC8
:1002F000000000200010014006000020044910B555
:100300000A68024202D00860FFF7DEFF10BD00005D
:10031000140401402DE9F84FDFF8B8910024A9F149
:10032000040B23460F2709F1040AABF1040EC9E0C0
:100330000125A5402A40AA427DD1674ED1F804C0CC
:10034000ACEB0608B44532D014DCBCF1030F3AD054
:1003500009DCBCF1000F2AD0BCF1010F1CD0BCF1AC
:10036000020F31D11DE0BCF1110F17D0BCF1120FFB
:100370002AD119E0B8F5881F19D006DCB8F5803FFE
:1003800015D0B8F5801F1FD111E0B8F5001F0ED0B1
:10039000B8F5041F18D10AE0CB6815E0CB681B1D27
:1003A00012E0CB6808330FE0CB680C330CE08B68AD
:1003B0002BB1012B4FF0080303D0456104E0042367
:1003C00002E0056100E00023FF2A01D8064601E0B3
:1003D00000F104064FEA840501D9A5F12005D6F8FD
:1003E000008007FA05FC28EA0C0803FA05F548EA3C
:1003F0000508C6F800804D68ED0062D5374DAE693E
:1004000046F00106AE61AD6924F0030605F0010572
:100410000095334D06EB050CDCF80850A607360FA7
:1004200007FA06F825EA0805DFF8B880404503D149
:100430004FF0000817E044E0DFF8AC80404502D1FF
:100440004FF001080FE0DFF8A480404502D14FF0E3
:10045000020808E0DFF89880404502D14FF0030819
:1004600001E04FF0040808FA06F848EA0508CCF85D
:1004700008804D68D9F80060ED024D4601D516435D
:1004800000E096432E604D68DAF80060AD025546F4
:1004900001D5164300E096432E604D68DBF80060FE
:1004A000AD035D4601D5164300E096432E604D68CE
:1004B000DEF80060ED03754601D5164300E0964373
:1004C0002E60641C0D682A46E5407FF431AFBDE81C
:1004D000F88F0000080401400000111000100240D5
:1004E0000000014000080140000C014000100140E4
:1004F000001401408068084000D0012070470AB114
:10050000016170470904FBE70148806870470000FB
:100510001400002070B5040025D094F83D0000259B
:1005200020B984F83C50204600F07EFA242084F85C
:100530003D002068016821F0010101602068016828
:1005400041F4004101602068016821F4004101602C
:1005500000F0C6FB4D4A6168914201D84C4900E069
:100560004C49884201D2012070BD4B492368B0FB41
:10057000F1F15E6826F03F060E435E6063689342C9
:1005800006D94FF4967359434FF47A73B1FBF3F1E4
:100590002368491C1E6A26F03F06314319626168D0
:1005A000914210D84900401EB0FBF1F2521CC2F338
:1005B0000B02042A01D2042022E0B0FBF1F0401C1F
:1005C000C0F30B001CE0A268F2B301EBC10303EB24
:1005D0000116431EB3FBF6F35B1C43F480431B057B
:1005E00049D092B301EBC10202EB0111401EB0FBF6
:1005F000F1F0401CC0F30B0040F4804040F4004098
:100600002168CA694CF6FF739A431043C861D4E964
:10061000071001432068026822F0C0021143016004
:10062000D4E9030101432068826848F2FF339A430A
:1006300011438160D4E9050108432168CA6822F0AA
:10064000FF021043C86001E00EE016E02068016878
:1006500041F0010101602564202084F83D002563FC
:1006600084F83E50002070BD01EB4106431EB3FBF1
:10067000F6F35B1CB3E70120C2E701EB4101401E2A
:10068000B0FBF1F0401CC0F30B00B7E7A0860100FF
:1006900080841E0000093D0040420F002DE9FF4FFD
:1006A00083B00025DDE910799A4693460446DDF8CB
:1006B00048800095FFF728FF064694F83D00202863
:1006C0007CD11923012288492046009600F0D4FEEF
:1006D0000028F5D194F83C0001286FD0012084F85F
:1006E0003C0020680168C90703D1016841F001019D
:1006F00001602068016821F400610160222084F813
:100700003D00402084F83E0025646762A4F82A90EA
:10071000608D20857548E062CDE9008653465A46D3
:100720002046049900F0AAFD00287CD1208DDFF836
:10073000C091202768B1012814D0022820680168E0
:100740001ED041F480610160206841698069009099
:10075000BCE02068416981690091016841F4007141
:100760000160B3E02068016821F48061016072B625
:100770002068416981690091016841F400710AE0D3
:1007800041F40061016072B620684169816900919D
:10079000016821F48061016062B697E0032865D8A2
:1007A00001280CD0022843464FF00002494620465B
:1007B00000960BD000F060FEA8BB0CE091E0324642
:1007C0004146204600F0FEFE68BB72E000F054FE99
:1007D00048BB72B633E02068016821F48061016093
:1007E00072B620680069616A0870606A401C6062C5
:1007F000208D401E2085608D401E60853D4846F25C
:10080000A8110068B0FBF1F0C0EBC00000EB800065
:100810000090401E009007D020684069C043400708
:100820000DD50098F5E727E044F8305F6773A573AE
:10083000206940F02000206162B625731CE020682A
:10084000016841F40071016020680069616A087004
:10085000606A401C6062218D491E2185618D491EA0
:10086000618562B621680969017026E03246414619
:10087000204600F0A7FE18B1012007B0BDE8F08FB8
:1008800020680069616A0870606A401C6062208D9F
:10089000401E81B22185608D401E608520684269BE
:1008A000D243520712D4032903D1016821F4806195
:1008B000016020680069616A0870606A401C6062BB
:1008C000208D401E2085608D401E6085208D002873
:1008D0007FF464AF84F83D7084F83E5084F83C5057
:1008E000CBE70220C9E70000020010000000FFFF74
:1008F00004000100200000202DE9FF4F83B09A463C
:10090000DDE9119793460446DDF84080FFF7FCFDD2
:10091000054694F83D0020287FD119230122404943
:100920002046009500F0A8FD002876D194F83C0000
:10093000012872D0012084F83C0020680168C907B2
:1009400003D1016841F0010101602068016821F4D0
:1009500000610160212084F83D00402084F83E00C1
:1009600000262664C4F82480A4F82A90608D20858F
:100970002C48E062CDE9007553465A46204604995A
:1009800000F0FAFC70B930E02A463946204600F003
:1009900051FE58B1206C042804D12068016841F44C
:1009A00000710160012007B0BDE8F08F606A216826
:1009B00000780861606A401C6062218D491E89B21E
:1009C0002185628D521E628522685369DB435B0775
:1009D0000BD469B100781061606A401C6062208DA0
:1009E000401E2085608D401E6085208D0028CBD163
:1009F0002A463946204600F013FD0028CAD154F893
:100A00003D0B016841F400710160202004F81E09CB
:100A1000E67766770020C6E7FFE70220C3E700001D
:100A2000020010000000FFFF10B586B00021009109
:100A300001910291039100680F4988421AD10F4C2D
:100A4000A06940F00800A061A069694600F00800B4
:100A50000490C020009012200190032003900848C9
:100A6000FFF758FCE06940F40010E061E06900F431
:100A70000010049006B010BD005400400010024069
:100A8000000C01400248816802781144816070477F
:100A900014000020074810B5016841F01001016002
:100AA000032000F075F80F2000F006F800F024F89D
:100AB000002010BD0020024070B50D4D04464FF4DB
:100AC0007A712878B1FBF0F00A490968B1FBF0F0BF
:100AD00000F0DCFA48B9102C07D200222146501E43
:100AE00000F036F800206C6070BD012070BD000081
:100AF00014000020200000200C4808B5816941F056
:100B000001018161816901F001010091C16941F038
:100B10008051C161C06900F0805000900448416874
:100B200021F0E06141F00071416008BD0010024019
:100B300000000140002809DB00F01F020121914064
:100B40004009800000F1E020C0F80011704700006B
:100B5000F0B40E4B1B680C46C3F30223C3F1070528
:100B6000042D00D90425191D072901D2002300E016
:100B7000DB1E012606FA05F1491E214099409E40E0
:100B8000761E16403143F0BC01F074B90CED00E064
:100B9000064900F0070208684FF6FF03184040EAD4
:100BA0000220034A10430860704700000CED00E08B
:100BB0000000FA052DE9F0470F46050061D0434ECD
:100BC000306800F00700B84209D2306820F0070012
:100BD00038433060306800F00700B84251D12868CF
:100BE0003B4C810712D5400703D5606840F4E060B4
:100BF00060602878000703D5606840F4605060604A
:100C00006068A96820F0F000084360602878C00799
:100C100028D06868012810D02168022810D08907E0
:100C200000292EDA616821F0030101436160FFF7BA
:100C30006BFC804641F288390DE021688903EFE7BB
:100C40008901EDE7FFF760FCA0EB0801494502D9F7
:100C50000320BDE8F0876068696800F00C00B0EB25
:100C6000810FEFD1306800F00700B8420BD930682F
:100C700020F0070038433060306800F00700B842C9
:100C800001D00120E5E72878400705D56068E968CC
:100C900020F4E060084360602878000706D56068AB
:100CA000296920F4605040EAC100606000F038F823
:100CB0006168084AC1F30311515CC84006490860E5
:100CC00006480068FFF7F8FE0020C2E70020024057
:100CD00000100240BA250008200000201800002063
:100CE0000448054900684968044AC1F30221515C7F
:100CF000C84070472000002000100240CA250008AC
:100D00000448054900684968044AC1F3C221515C9E
:100D1000C84070472000002000100240CA2500088B
:100D20000E4A51680E4801F00C03042B11D0082B19
:100D30000FD10C48C1F38343C903C05C0AD5516885
:100D4000084AC1F34041921E515C054A5043B0FB32
:100D5000F1F070470449484370470000001002401A
:100D600000127A00AA25000800093D002DE9F84F7D
:100D7000040070D02078C04DC00749D06868C0F327
:100D80008100012807D06868C0F38100022809D1DA
:100D90006868C00306D52868800339D560680028D4
:100DA000E7D035E06068B0F5803F0BD010B1B0F50A
:100DB000A02F11D0286820F480302860286820F403
:100DC000802002E0286840F480302860606890B19C
:100DD000FFF79AFB06460AE0286840F48020286066
:100DE000F0E700BFFFF790FB801B642873D82868EA
:100DF0008003F7D50CE0FFF787FB064605E000BF50
:100E0000FFF782FB801B6428F0D828688003F7D4A2
:100E100020789A4E80074FF001094FF0000839D52D
:100E2000686810F00C0F07D06868C0F381000228D2
:100E300009D16868C00306D42868800714D52069E2
:100E4000012808D110E02069B0B1C6F80090FFF782
:100E50005BFB074605E00AE1FFF756FBC01B0228D3
:100E6000C4D828688007F7D52868616920F0F800A1
:100E700040EAC10028600DE0C6F80080FFF744FB9F
:100E8000074604E0FFF740FBC01B022823D8286870
:100E90008007F7D4207800072CD57948A169D9B10B
:100EA000C0F80090FFF730FB074604E0FFF72CFB8B
:100EB000C01B02280FD8686A8007F7D571484FF425
:100EC000FA510068B0FBF1F0009000BF0098411E9D
:100ED0000091FAD20EE080E0C0F80080FFF714FB2A
:100EE000074604E0FFF710FBC01B022875D8686AAC
:100EF0008007F7D42078400760D5E8690027C00054
:100F000008D4E86940F08050E861E869012700F002
:100F1000805000905C480168C90513D4016883467D
:100F200041F480710160FFF7EFFA824606E000BFEE
:100F3000FFF7EAFAA0EB0A0064284ED8DBF80000BD
:100F4000C005F5D5E06801280AD008B1052813D0FE
:100F5000286A20F001002862286A20F0040002E0DC
:100F6000286A40F001002862E06841F2883B98B1AD
:100F7000FFF7CAFA82460BE0286A40F004002862B4
:100F8000EEE700BFFFF7C0FAA0EB0A0159455AD8B7
:100F9000286A8007F6D50CE0FFF7B6FA824605E02E
:100FA000FFF7B2FAA0EB0A0159454CD8286A80072E
:100FB000F6D41FB1E86920F08050E861E06988B399
:100FC0006968C1F38101022944D00228C6F8608013
:100FD00004D0FFF799FA044638E034E0FFF794FABA
:100FE000074604E0FFF790FAC01B02282BD82868B8
:100FF0008001F7D4206AB0F5803F05D16868A16808
:1010000020F4003008436860D4E9080108436968A7
:1010100021F4741108436860C6F86090FFF774FA11
:10102000044606E025E000BFFFF76EFA001B022829
:1010300009D828688001F7D51BE000BFFFF764FAE4
:10104000001B022802D90320BDE8F88F2868800120
:10105000F4D40EE00128F7D06868226A00F48031E9
:10106000914204D1616A00F47010884201D00120DD
:10107000EAE70020E8E700000010024000004242DA
:1010800080044242200000200070004010B5401E45
:10109000B0F1807F01D3012010BD4FF0E0246061EA
:1010A0000F21601700F0E6FE0020A06107202061FC
:1010B000002010BD70B5040004D094F84100002554
:1010C00010B106E0012070BD84F84050204600F0C9
:1010D00023F8242084F841002068C16821F40051DD
:1010E000C160204600F030FE2068016921F4904183
:1010F00001612068416921F02A0141612068C168CD
:1011000041F40051C1606564202084F8410084F8F6
:1011100042006563002070BD30B585B000240094A6
:1011200001940294039400681449884223D114481E
:10113000C16941F40031C161C16901F40031049118
:10114000816941F00401816180690E4D00F0040065
:10115000049004200090022001900320039069462F
:101160002846FFF7D7F80820CDE90004694628464D
:101170000294FFF7CFF805B030BD000000440040F6
:1011800000100240000801402DE9F843044690F8A1
:101190004100984616460D46202802D00220BDE8A0
:1011A000F88385B17EB100206064212084F841007D
:1011B000FFF7AAF9A6848146E684A0682027B0F547
:1011C000805F02D003E00120E9E7206910B12E46DC
:1011D00000250EE000260CE08021204600F010FEE5
:1011E000A8B9C6B116F8010B21684860E08C401E12
:1011F000E084E08C4B464FF00002CDF800800028E0
:10120000EAD14FF04001204600F0FAFD40B184F8E9
:1012100041700320C3E735F8020BC0F30800E3E791
:1012200084F841700020BAE7FEE701684A69D243BA
:1012300052050FD46FF480624A61002140F8301FDC
:10124000202242738173026942F004020261017339
:1012500001207047002070471FB54FF47A740123B6
:1012600003AA8DE81C000A4601460348FFF716FA58
:101270009DF80C0004B010BD240000202DE9F84FAB
:101280000446006889460B9D01689846174641F45C
:10129000806101602068016841F4807101600095FF
:1012A0004FF0011B0022594620460A9B00F0E4F84B
:1012B0004FF4007A40B120680068C00501D5C4F839
:1012C00040A00320BDE8F88F216809F0FE00086106
:1012D0002B46284920460A9A00F016F9F0BB2068F0
:1012E0004169806900902A4620460A9900F0A2F9D7
:1012F00040B1206C04283AD12068016841F40071A3
:10130000016034E0FEB2B8F1010F09D02168380A5B
:1013100008612A4620460A9900F08CF90028E8D195
:10132000206806612A4620460A9900F083F90028C1
:10133000DFD12068016841F48071016000950022CE
:10134000594620460A9B00F097F80028B3D121683F
:1013500009F0FF0040F00100086100E007E02B46C3
:10136000044920460A9A00F0CFF80028AAD00120AC
:10137000A8E70000020001002DE9F84304460068D8
:101380000D46DDE9089701689846164641F48071DC
:1013900001604B4600224FF001112046009700F0FB
:1013A0006BF848B120680068C00502D54FF40070A2
:1013B00020640320BDE8F883216805F0FE00086181
:1013C0003B464A461549204600F09EF888B92068F9
:1013D0004169806900903A464946204600F02AF962
:1013E00048B1206C042804D12068016841F40071E0
:1013F00001600120DEE7F5B2B8F1010F09D02168E4
:10140000300A08613A464946204600F013F90028A0
:10141000E7D1206805610020CCE700000200010050
:1014200070B516460D4604461EE02046FFF7FDFE49
:1014300008B1012070BD681C16D0FFF765F8801B4D
:10144000A84200D885B920684069C04340070BD541
:10145000002044F8300F20216173A073216941F00E
:10146000200121612073E4E720684069C043400700
:10147000DBD4002070BD00002DE9F04798461746E8
:101480000D460446C1F30746DDF820902AE000BF70
:10149000B8F1FF3F26D0FFF737F8A0EB090141452F
:1014A00002D8B8F1000F1DD12068012E16D0806936
:1014B00025EA00000004000C12D00020B84211D12F
:1014C000002044F8300F20216173A073216941F09E
:1014D0002001216120730120BDE8F0874069E7E722
:1014E0000120EBE72068012E0AD0806925EA000080
:1014F0000004000C06D00020B842C9D00020EBE761
:101500004069F3E70120F7E72DE9F04798461646D2
:101510000D4604464FF000094FF0200AC1F307477B
:1015200023E020684069C043400515D42068016865
:1015300041F40071016021686FF480604861C4F873
:10154000309084F83DA084F83E90216C41F0040175
:10155000216484F83C9021E0701C06D0FEF7D4FF93
:10156000A0EB0800B04203D816B1012F1FD021E034
:101570002068012F15D0806925EA00000004000CC6
:1015800018D000BF44F8309F84F80DA084F80E9066
:10159000216941F02001216184F80C900120BDE80F
:1015A000F087406925EA00000004000CEAD12068B9
:1015B000406901E02068806925EA00000004000C11
:1015C000AFD1ECE72DE9F041002590460E460446E8
:1015D000202728E04069C043C0060CD454F8301BD3
:1015E0006FF01000486144F810596777A577206ABA
:1015F0002062257714E0FEF787FFA0EB0800B042D9
:1016000000D886B920684069C04340060BD544F82D
:10161000305F6773A573206940F020002061257357
:101620000120BDE8F08120684169C9434906D1D451
:101630000020F6E770B516460D4604461EE020462B
:10164000FFF7F3FD08B1012070BD681C16D0FEF74E
:101650005BFF801BA84200D885B920684069C04361
:1016600000060BD5002044F8300F20216173A073D1
:10167000216941F0200121612073E4E7206840697D
:10168000C0430006DBD4002070BD000017B583B056
:101690004FF47A74012305AA8DE81C000A4601461E
:1016A0000248FFF729F906B010BD00002400002011
:1016B0002DE9F04186B0002433480094019402944F
:1016C0000394816941F010018161816901F0100189
:1016D0000491816941F004018161816901F0040193
:1016E0000491816941F0080181618069012200F063
:1016F0000800264F5503049029463846FEF7FFFEA2
:10170000DFF88C80012208214046FEF7F8FE002217
:1017100010214046FEF7F3FE0126CDE900560225D2
:1017200069463846CDE90245FEF7F4FD19480095B3
:10173000CDE9010469464046FEF7ECFDA8030090A0
:101740001548CDE9010569461448FEF7E3FD182068
:10175000CDE9000669464046CDE90245FEF7DAFDCF
:10176000002211460720FFF7F3F90720FFF7E2F9FF
:10177000002211462820FFF7EBF92820FFF7DAF9BD
:1017800006B0BDE8F08100000010024000100140EA
:10179000000C014000003110000011100008014051
:1017A0000D4810B50B4901600C49416000214FF410
:1017B00080428160C0E9031241618161C1610162BF
:1017C000FEF7A8FE002803D0BDE81040FEF768BD74
:1017D00010BD00000054004024000020A08601003D
:1017E0000C4810B50A4901604FF4E1314160002115
:1017F00081600C22C160C0E904128161C161FFF700
:1018000059FC002803D0BDE81040FEF749BD10BDCB
:101810000044004078000020FEE7FEE770470178B2
:1018200042780A4381781143C2780A430021E820B4
:10183000FFF72CBF10B504461921E820FFF70CFD77
:10184000217800F0910009B1402200E0002202431B
:10185000607808B1202100E00021A078114300B198
:1018600008200843E17801B104210143207908B13F
:10187000022200E000220A431921BDE81040E820BE
:10188000FFF704BF10B50C21E820FFF7E5FC40F09E
:1018900040020C21BDE81040E820FFF7F7BE10B56C
:1018A00004460821E820FFF7D7FC00F0E00120788B
:1018B000E278084361780143A07808430243082195
:1018C000E820FFF7E3FE0921E820FFF7C5FC2179B6
:1018D00000F0600001436079A279084302430921C6
:1018E000E820FFF7D3FE0A21E820FFF7B5FC00F05F
:1018F0000301E079227B0843217A0143607A08439F
:10190000A17A0143E07A084302430A21E820FFF765
:10191000BDFE0B21E820FFF79FFC00F0F00040F037
:101920000801607BA27B084302430B21E820FFF7FC
:10193000ADFEE07B217C227D0143607C0843A17CDD
:101940000143E07C084302430C21E820FFF79EFEA0
:10195000BDE81040052000F0A3B90000F0B587B045
:101960000024182168460694FEF72EFC384D394FA6
:1019700001222C702C716C70EC70AC700821384610
:10198000FEF7BDFD002210213846FEF7B8FD052008
:1019900000F086F940208DF818008DF819401820C5
:1019A0008DF81A008DF81B4006A8FFF738FF8DF858
:1019B000004004208DF801008DF8044008208DF8C7
:1019C00005008DF8064080218DF80C408DF8071039
:1019D0008DF80D408DF80E4020218DF80F1010214C
:1019E0008DF810108DF811008DF8024001268DF849
:1019F00003608DF8124002948DF813408DF8144066
:101A00006846FFF74CFF2E706E70AE70EE702E7150
:101A10002846FFF70FFF002208213846FEF76FFD2A
:101A20004FF4FA6000F080F841F25634204600F09E
:101A300097F844F2100000F01DF9204600F0AEF8CF
:101A400000F024F8FFF71EFF00F013F807B0F0BD18
:101A500000000020000C014010B50921E820FFF72C
:101A6000FBFB00F07F020921BDE81040E820FFF7F2
:101A70000DBE10B50921E820FFF7EEFB40F0800213
:101A80000921BDE81040E820FFF700BE10B50C2189
:101A9000E820FFF7E1FB40F080020C21BDE8104098
:101AA000E820FFF7F3BD10B504461921E820FFF741
:101AB000D3FBC0F380112170C0F340116170C0F3FB
:101AC000C001A170C0F38001E170C0F3400020713B
:101AD00010BD000070B50821E820FFF7BDFB8007AE
:101AE0004FF0000401D50E4D00E00E4D0F21E8200F
:101AF000FFF7B2FB06461021E820FFF7ADFB810996
:101B000001EB8600401C00F0C6FB22462B4600F08D
:101B1000D5FB00F093FB4FF6FF7101EA400070BD6A
:101B2000000014400000294010B504460821E820B8
:101B3000FFF792FBC00601D50C2100E0062104EB63
:101B4000840040F2712240015143B0FBF1F0401E8D
:101B5000C2B20621BDE81040E820FFF797BD0000A3
:101B600010B504460821E820FFF776FBC0F381009A
:101B7000012811D05FF0030104EB840040F27122D0
:101B800040015143B0FBF1F0401EC2B20521BDE857
:101B90001040E820FFF77ABD0621EDE72DE9F0417E
:101BA00004460A21E820FFF757FBC706204600F04D
:101BB00072FB0E4605464FF0FF34002F23DA002259
:101BC0004FF0804300F0E2F9224600F0A7FC00F05D
:101BD00035FB80B20024011B8907B1F1804F03D08F
:101BE000641CA4B2032CF6D3001B401EC11700EBEB
:101BF0009170C0F387020321E820FFF747FDA0079B
:101C0000020E04212CE00821E820FFF725FBC00785
:101C10004FF0000201D0154B00E0154B284631462D
:101C200000F0B4F9224600F079FC00F007FB80B226
:101C30000024011B8907B1F1804F03D0641CA4B2BA
:101C4000032CF6D3001B401EC11700EB9170C0F3AC
:101C500087020121E820FFF719FDA007020E0221EB
:101C6000BDE8F041E820FFF711BD0000000014407E
:101C70000000294010B504460921E820FFF7ECFADE
:101C8000C00601D5282000E06420B4FBF0F0401E1F
:101C9000C2B20721BDE81040E820FFF7F7BC70474B
:101CA000FEF700BBFEF7EEBE10B590B028216846E7
:101CB000FEF78AFA14210AA8FEF786FA022000909D
:101CC0000120049010200024059007946846FFF737
:101CD0004DF808B172B6FEE70F20CDE90A040C9466
:101CE0000D9400210AA80E94FEF764FF002801D08D
:101CF00072B6FEE710B010BD704701680C3151E8B4
:101D0000002F22F4907241E80023002BF5D10168E6
:101D1000143151E8002F22F0010241E80023002B8A
:101D2000F5D1016B012909D101680C3151E8002F6F
:101D300022F0100241E80023002BF5D1202180F889
:101D4000421000210163704770B5044600680169C4
:101D5000E26821F44051114301612169A068084300
:101D6000616908432168CA6841F20C639A430243DF
:101D7000CA6020684169A26921F440711143416140
:101D80001E492068884202D1FEF7BAFF01E0FEF743
:101D9000A7FF00EBC00101EB001260686421800026
:101DA000B2FBF0F3B3FBF1F36FF018067343B2FB31
:101DB000F0F5B2FBF0F605EB8305322303EB0515D6
:101DC000B5FBF1F5B6FBF1F605F0F00505EB0615F0
:101DD000B2FBF0F6B2FBF0F0B0FBF1F06FF01802DE
:101DE000504306EB800003EB0010B0FBF1F02168DC
:101DF00000F00F002844886070BD000000380140EA
:101E00002DE9F843984617460D460446089E24E0FF
:101E1000701C22D0FEF778FBA0EB0800B0421AD865
:101E2000CEB12068C168490717D5802D15D0402D47
:101E300013D00168C94309070FD401680025406821
:101E400000902046FFF759FF0820606484F8405056
:101E50000120BDE8F8830320FBE72068006835EA2D
:101E6000000004D00020B842D2D00020F1E70120C9
:101E7000F9E7FEE70907090E002804DB00F1E0207E
:101E800080F80014704700F00F0000F1E02080F8A7
:101E9000141D7047FEF7FEFDFFF706FFFFF708FC75
:101EA000FFF77EFCFFF79CFCFFF758FD2F4D9320BA
:101EB0004FF4FA77A8704FF470584FF47A790026EF
:101EC000A5F108043846FEF7EDF96088401C6080F3
:101ED000207870B13846FEF7E5F902212448FEF774
:101EE00009FB012805D1410300222248FEF707FB28
:101EF0002670FFF7EFFDE0802870000A6870642309
:101F000003221A491C48FFF73FF9E088404502D2F6
:101F10000120607004E043F6E051884200D9667009
:101F200060884845CED9607810B141F2563001E062
:101F300041F28830A080FFF78FFD0520FEF7B2F94F
:101F40004FF4FA60FFF7F0FDA088FFF709FE44F2B6
:101F50001000FFF78FFEA088FFF720FEFFF796FD29
:101F6000FFF790FCFFF785FD6680ABE70E000020D1
:101F7000000C0140001001407800002002494FF0A1
:101F8000000000F099BA00BF0000F87F2DE9C041C1
:101F900030B4DFF8A0C23CEA111418BF3CEA1314B5
:101FA00000F0EC8081EA03051CEA111444EAD574C0
:101FB00018BF1CEA131500F0C780A4EB05044FF00E
:101FC000004545EAC12145EAC32341EA505143EAAD
:101FD000525304F17F74994204F500344FEAC02053
:101FE0004FEAC22208BF904200F09C804FEA13657E
:101FF0000FF24016765D4FEA134506FB05F7C7F171
:10200000807706FB07F74FEAD737A7FB03687642CE
:10201000C8F58038A7FB06CE38BFA8F1010807FB3A
:1020200008E64FF0000EA6FB028CE6FB03CEDCF1C7
:10203000000CCEF1004E38BFAEF1010EA6FB0C58DD
:102040004FF000074FF00005E6FB0E87A1FB08C626
:10205000A0FB07CE16EB0E0645F10005E1FB076578
:1020600015F1E04E7EBFA4F580345FEA46066D416F
:1020700016F1800745F100054FEA17274FEA06667B
:1020800047EA0567A6F1DE46B6F1805F4FEA1525FF
:102090001FD9384624F0010C05EBC471BCF1FE6F6A
:1020A00001EB0C1102D8F0BCBDE8008124425CBFFA
:1020B00001F5801E9EEAC47F02D4F0BCBDE8008119
:1020C000244238D4F0BCA1F1C041BDE8004100F089
:1020D000EDB94FEAD22242EA43524FEAD323A7FB9B
:1020E00002864FEAD02040EA415007FB03661EEA11
:1020F0000E0F4FEAD12105FB026658BFA6EB005632
:10210000B6EB00564FEA520E4EEAC37E18EB0E0EA7
:1021100056EB530EBDD518EB02085E417F1C55F1FE
:102120000005B6E74FF480154FF000074FF00006AA
:102130004FF00008ADE7F0BC4FF0000001F1C041E6
:1021400001F00041BDE8008111EA0C1F0CEA1315F3
:1021500000D00CE013EA0C1F00F025804FF00000C7
:10216000F0BC81EA030101F00041BDE80081F0BC50
:10217000BDE8004181EA030100F098B9F0BCBDE878
:10218000004170B500F044F9097EFC3E00F007B84C
:1021900081EA03014FF0000001F00041704781EA3D
:1021A000030100F083B9F0BCBDE800414FF000002E
:1021B00021497047FFFDFBF9F7F5F4F2F0EEEDEB86
:1021C000E9E8E6E4E3E1E0DEDDDBDAD8D7D5D4D335
:1021D000D1D0CFCDCCCBCAC8C7C6C5C4C2C1C0BF81
:1021E000BEBDBCBBBAB9B8B7B6B5B4B3B2B1B0AF87
:1021F000AEADACABAAA9A8A8A7A6A5A4A3A3A2A16B
:10220000A09F9F9E9D9C9C9B9A9999989797969525
:1022100095949393929191908F8F8E8E8D8C8C8BC1
:102220008B8A898988888787868585848483838249
:10223000828181800000FF070000F87F4FEA115380
:10224000A3F58063D3F11E03A8BFD3F1200C08DBF4
:102250004FF0004242EAC12252EA505232FA03F0F1
:10226000704709420BD4102BC4BF0020704703F500
:10227000787CBCF1FF3F05D04FF0FF3070474FF046
:102280000000704770B500F0C3F800BF4992248089
:1022900000207047F0E7B0FA80F310FA03F10AD09B
:1022A000C3F11D0303F580634FEA41504FEA035227
:1022B00002EBD12170474FF000007047DFF848C1B2
:1022C00070B51CEA111E1EBF1CEA13159EEA0C0F06
:1022D00095EA0C0F00F06F8081EA030423EA4C13A7
:1022E0004EEAD47E21EA4C1141F4801143F480136C
:1022F000AE44A1FB024CA0FB0365AEF17F7E361914
:1023000055EB0C05A1FB034C4CF10003A0FB021C98
:1023100016EB0C06654153F10003094218BF46F065
:10232000010613F4007F0BD14FEA03314FEA053069
:10233000340341EA155140EA16506FF003020AE0F7
:102340004FEAC3214FEAC520F40241EA555140EA61
:1023500056506FF0020202EB2E4201EB025585EA65
:10236000CE710AD05FEA440C18BF24F0004450F14B
:10237000000041F1000120EAD47040F2FE7C624589
:1023800000D270BDA84214BF4FF080444FF04044CB
:10239000002E08BF0024BEF1806FA8BFA1F1C0418C
:1023A000BDE8704080F282804FF0000001F1C04132
:1023B00001F0004170479EEA0C0F0CEA131518BF9C
:1023C00095EA0C0F06D04FF0000081EA030E0EF0E4
:1023D000004170BD00F01CF88900013E00F007B814
:1023E00000F009B84FEA430C5FEA5C5C08D081EA70
:1023F000030100F05BB84FEA410C5FEA5C5CF6D188
:102400004FF00000014970470000FF070000F87F0F
:102410000EF1020E2EF0030E5EF8046B364205D468
:10242000012A43EB030515F5001F12D8012841EBE3
:10243000010C1CF5001F0CD80ED14FEAD17C15F50C
:10244000001F0CEB4C0C0CF1020C08BF4CEBD37CC6
:1024500004E04FF0080C01E04FEAD37C0CEB4C0594
:1024600026FA05F606F00706B6F1040C06D20EEBC6
:10247000860CBDE870404CF0010C6047DFE80CF0C2
:10248000090B02024FF000414FF00000A1F50021BE
:1024900070BD19461046012851EB010418BFD4F550
:1024A000001484BF002001F0004170BD0808A0F5B1
:1024B00000114FEA310170470CF00F03092B08BFE0
:1024C000082000F059800A2B0BD0082B18BF70474A
:1024D00008BF1CF0400F0AD04FF000004FF0000181
:1024E00070471CF0400F18BF4FF0004070471CF0C1
:1024F000100F08D020F0704300F07F4242EAD30171
:102500004FEA4370704700F0604021F07F4242EA9A
:10251000000201F07F4040EA727070474FF0FF0CFC
:102520004CF4E06C1CEA11531CBF9CEA030C94456C
:10253000C2BFDA4201EB02517047002B0DD0BCF153
:10254000000F0FD0002A01F00041A4BF41F0E0418C
:1025500041F07F614FF00000704701F000414FF003
:102560000000704750EA01334FF09B0C18BF4CF04D
:10257000806C7FF403AD70471CF4801F11D01CF4F5
:10258000E02F03D06FEACC31490070474FF0405044
:10259000EFF3008222F0704242EA000282F30088E8
:1025A00070474FF000007047010202030405060760
:1025B00008090A0B0C0D0E0F10100000000000009F
:1025C00000000102030406070809000000000102E0
:1025D00003040000F425000800000020240000008F
:1025E000280100081826000824000020FC0600002E
:1025F0004401000800000000000001010000561323
:1026000000000000000000000100000010000000B9
:082610000000000000127A0036
:04000005080000ED02
:00000001FF
